:020000040800F2
:100000008846002059020008372D0008992700086B
:10001000352D00085D050008293F0008000000009C
:100020000000000000000000000000009D0100082A
:100030002906000800000000F10100081D39000831
:1000400073020008730200087302000873020008BC
:1000500073020008730200087302000873020008AC
:10006000730200087302000873020008730200089C
:10007000610500086D05000873020008730200089E
:100080007905000873020008730200087302000873
:10009000730200087302000873020008730200086C
:1000A000730200087302000873020008730200085C
:1000B000393A00087302000873020008730200084E
:1000C000730200087302000873020008730200083C
:1000D00073020008D93E0008E53E0008F13E000822
:1000E000730200087302000873020008730200081C
:1000F000730200087302000873020008730200080C
:1001000073020008730200087302000873020008FB
:10011000053B000873020008730200087302000820
:1001200073020008730200087302000873020008DB
:1001300073020008730200087302000873020008CB
:1001400073020008730200087302000873020008BB
:1001500073020008730200087302000873020008AB
:10016000730200087302000873020008730200089B
:100170007302000873020008730200080000000008
:100180007302000873020008DFF80CD000F0D8F802
:1001900000480047573F0008884600202B4B19684D
:1001A0000868B0E8F04F80F30988BFF36F8F4FF015
:1001B000000080F3118870470000000006480068C6
:1001C000006880F3088862B661B6BFF34F8FBFF353
:1001D0006F8F00DF00BF00BF08ED00E0DFF80C000C
:1001E000016841F470010160704700BF88ED00E0D4
:1001F000EFF30980BFF36F8F144B1A681EF0100FD6
:1002000008BF20ED108A20E9F04F106008B44FF0CD
:10021000500080F31188BFF34F8FBFF36F8F04F04E
:10022000F7FB4FF0000080F3118808BC19680868DC
:10023000B0E8F04F1EF0100F08BFB0EC108A80F34A
:100240000988BFF36F8F704700BF00BF68000020B0
:10025000EFF30580704700000648804706480047D6
:10026000FEE7FEE7FEE7FEE7FEE7FEE7FEE7FEE766
:10027000FEE7FEE7E5390008890100082DE9F05F97
:100280000546002092469B46884606468146402405
:100290001BE0284641464746224600F041F85346B7
:1002A0005A46C01A914110D311461846224600F012
:1002B00028F82D1A67EB01084F462246012000213D
:1002C00000F01FF817EB00094E41201EA4F10104B5
:1002D000DFDC484631462A464346BDE8F09F40EA07
:1002E00001039B0703D009E008C9121F08C0042AB4
:1002F000FAD203E011F8013B00F8013B521EF9D29B
:100300007047202A04DB203A00FA02F100207047EF
:100310009140C2F1200320FA03F319439040704743
:10032000202A04DB203A21FA02F00021704721FA4A
:1003300002F3D040C2F120029140084319467047B1
:10034000064C074D06E0E06840F0010394E8070022
:1003500098471034AC42F6D3FFF71AFF5C540008FC
:100360007C540008454910B54A6822F440324A607E
:100370004A6843681A434A6001684A6822F48072F6
:100380004A6001684A68036942EA03224A600168D8
:100390004A6822F040724A6001684A6883681A43DA
:1003A0004A6001688A6822F400628A6001688A688B
:1003B000C3681A438A60816A6FF07062D142016833
:1003C0008A6822F070628A6001688A680CD0836A49
:1003D0001A438A6001688A6822F040528A60016884
:1003E0008A68C36A1A4301E022F040528A600168B9
:1003F0008A6822F002028A6001688A68836942EA98
:1004000043028A60016A002901684A680FD042F4F9
:1004100000624A6001684A6822F460424A600168EA
:100420004A68174C436A04EB43331A4301E022F451
:1004300000624A600168CA6A22F47002CA620168F6
:10044000CA6A838B0F4C04EB03531A43CA620168D8
:100450008A6822F400728A6001688A68036B42EA43
:1004600043228A6001688A6822F480628A60016897
:100470008A68406942EA8020886010BD00230140FC
:1004800000E0FFFF0000F0FF10B501246103034806
:1004900000F0FEFC00B90024204610BD0008024018
:1004A0000146014801F09DBCF401002010B504484C
:1004B00001F0A9FC042801D0012010BD002010BDCE
:1004C000F401002010B500F015F8012801D001203A
:1004D00010BD074801F0ADFC040006D14FF40061E7
:1004E000034801F054FB00B10124204610BD000078
:1004F000F401002008B501208DF80000FFF7C4FFCB
:1005000010B900208DF800009DF8000008BD000023
:10051000134610B50A4601460024034801F000FDC9
:1005200000B10124204610BDF401002003484FF023
:10053000FF320121406803F0ADBD0000080000203B
:10054000134610B50A4601460024034801F066FD33
:1005500000B10124204610BDF4010020FEE7000098
:10056000014800F035BA0000E8040020014800F01E
:100570002FBA000028040020014800F029BA00002A
:100580008804002001681823CAB2103AB2FBF3F2C3
:10059000054B6FF30901032A9B5CC36500D9091D54
:1005A00081650846704700003054000810B50146C8
:1005B00000208B698A6A4FF0C07453B1B3F5005FB5
:1005C00015D072B1012A0CD0022A0AD0032A09D10F
:1005D00004E01AB1012A06D0022A03D1C96AC9016E
:1005E00000D5012010BDC96AA142FAD010BD002A71
:1005F000F7D0012AF2D0022AF3D0032AF3D010BD9B
:1006000030B50468256825F480252560046863609A
:100610008368402B036803D099600068C26030BDD6
:100620009A600068C16030BD70470022AFF300805F
:1006300030B50E4B054601209C7B022C15D2987BD1
:1006400000241C54987B03EB800045609D7B03F1E4
:100650000C002A54987B421C9A73303008703A2060
:1006600048702F208870CC70002030BD8405002099
:1006700078B50024009490F83C20012A19D001227A
:1006800080F83C200A6807230568092A13D9EE6818
:100690000A3A02EB420293409E43EE600B788A686E
:1006A0000A3B03EB43039A400368DD682A43DA60A0
:1006B00010E0022078BD2E6902EB420293409E4377
:1006C0002E610B788A6803EB43039A4003681D6927
:1006D0002A431A614A681F23072A13D205686E6BE2
:1006E000521E02EB820293409E436E630B790A888E
:1006F0005B1E92B203EB83039A4003685D6B2A434F
:100700005A6327E005680D2A12D22E6BD21F02EB26
:10071000820293409E432E630B790A88DB1F92B2BC
:1007200003EB83039A4003681D6B2A431A6311E0AD
:10073000EE6A0D3A02EB820293409E43EE620B7921
:100740000A880D3B92B203EB83039A400368DD6A8B
:100750002A43DA62164B0568144A9D4206D10D6899
:10076000122D03D1556845F48005556005689D42FA
:1007700018D10B68102B01D0112B13D1536843F4FF
:1007800000035360096810290CD10A490A4A096814
:10079000B1FBF2F101EB8101490000E0491E00913B
:1007A0000029FBD180F83C40002078BD00230140A7
:1007B000002001404000002040420F0070B50400BE
:1007C0004FF0000503D0206C002610B107E0012097
:1007D00070BD666484F83C60204600F019F8206C17
:1007E000C00610D4206C20F4885040F00200206431
:1007F0002046FFF7B7FD6664206C20F0020040F051
:100800000100206400E0012584F83C60284670BDAA
:1008100000B500680C4987B0884212D10B4800210E
:10082000026842F480720260006800F480700590F3
:10083000012000900320CDE901016946044800F041
:100840004FFA07B000BD00000020014044380240CC
:100850000008024010B5040002D0607910B106E033
:10086000012010BD00202071204600F007F8022072
:10087000607101206071002010BD000008B50068A3
:100880000649884208D10648016841F48051016058
:10089000006800F48050009008BD00000030024065
:1008A0003038024010B5040003D094F8250010B190
:1008B00004E0012010BD204600F030F8022084F84A
:1008C00025002068016840F6F87291430160616973
:1008D00060680843D4E9031211430843A168084340
:1008E000A1690843216A084321680A681043086027
:1008F0006068102805D1E17FE06961F31F6021681D
:1009000088612068C16841F01E01C1600020E06379
:10091000012084F82500002010BD0000F0B500681B
:100920001C4987B0884232D11B480024016841F03D
:10093000010101600068022500F0010005907320AC
:100940000090CDE901540D26CDE9034669461348D0
:1009500000F0C6F950200090CDE90154CDE90346DE
:1009600069460F4800F0BCF9C0270097CDE9015453
:10097000CDE9034669460B4800F0B2F90097CDE98E
:100980000154CDE903466946074800F0A9F907B0CC
:10099000F0BD000000000550343802400010024055
:1009A00000000240000802400004024090F83510A8
:1009B000022903D08021416501207047052180F87C
:1009C00035100068016821F00101016000207047C6
:1009D0002DE9F84304464FF00009CDF80090634834
:1009E0004FF41651A56D0068B0FBF1F72E6894F82E
:1009F0005C10082000FA01F131420FD021680A682A
:100A000052070BD50A6822F004020A6094F85C10C1
:100A10008840A860606D40F00100606594F85C104B
:100A20004FF0010808FA01F0304208D02168496906
:100A3000090604D5A860606D40F00200606594F876
:100A40005C1004208840304208D02168096889077A
:100A500004D5A860606D40F00400606594F85C10F7
:100A600010208840304218D021680968090714D541
:100A7000A86020680168490304D50068000308D510
:100A8000A16C07E00168C90503D4016821F00801E1
:100A90000160216C09B12046884794F85C10202041
:100AA0008840304231D021680968C9062DD5A86038
:100AB00094F8350005282068016806D0490347D519
:100AC000006800031DD4616C1CE021F01601016078
:100AD0002068416921F080014161206C08B9A06C57
:100AE00020B12068016821F00801016094F85C10D1
:100AF0003F208840A86084F8349084F83580216DC8
:100B00001FE0E16B09B120468847606D00282BD0BB
:100B1000606DC00714D0052084F835002068016896
:100B200021F0010101600098401C0090B84203D8F8
:100B300020680068C007F6D184F8349084F83580C6
:100B4000E16C002910D001B02046BDE8F043084711
:100B50000168C905D5D4016821F01001016084F84D
:100B6000349084F83580CCE7BDE8F883400000205D
:100B70002DE9F041044600F095F906465CB10025E8
:100B800084F83450022084F835002068016821F090
:100B9000010101600DE00120BDE8F08100F082F963
:100BA000801B052805D920206065032084F83500C6
:100BB000F2E720680068C007F0D122681168204879
:100BC0000140D4E901031843D4E903363343184301
:100BD00063691843A3691843E3691843236A1843F8
:100BE0000843616A042903D1D4E90B13194308436C
:100BF000106020684069666A20F0070130460E43A5
:100C0000012704280CD1A06A0643E06A40B12046BF
:100C1000FFF7CCFC20B14020606584F83570BAE75E
:100C2000206846612046FFF7ADFC94F85C203F2128
:100C300091408160656584F835700020ACE7000064
:100C40003F8010F02DE9F0410446866D90F83400A5
:100C5000002501280DD0012084F8340094F8357067
:100C60000020012F07D084F8340002252846BDE873
:100C7000F0810220FBE7022784F83570606520468A
:100C8000FFF7BEFC94F85C103F208840B0602068FD
:100C9000016841F0160101602068416941F080015E
:100CA0004161206C20B12068016841F008010160B9
:100CB0002068016841F001010160D7E770B5044682
:100CC00000F0F0F80546601C02D0044800780444A7
:100CD00000F0E8F8401BA042FAD370BD34000020B9
:100CE0002DE9F84FDFF87CB100224FF001084FF0FA
:100CF000030A4FF00F090BF1040E00BF0B6808FA4E
:100D000002F42340A3426ED14D68022D01D0122D72
:100D10000ED1D50800EB850CDCF820505607F70EF5
:100D200009FA07F6B5430E69BE402E43CCF82060A1
:100D3000066855000F790AFA05FC07F0030726EA52
:100D40000C06AF40374307604E68012E05D0022ED7
:100D500003D0112E01D0122E0ED18668CF6826EA5C
:100D60000C06AF40374387604668A6430C79C4F34E
:100D70000014944034434460C6688C6826EA0C062C
:100D8000AC403443C4604C68E40065D5364C2568FB
:100D900045F480452560246822F0030504F480446E
:100DA0000094324C2E19D6F8084895072F0F09FAEF
:100DB00007F5AC432E4DA84201D1002524E02D4D6E
:100DC000A84201D101251FE02B4DA84201D10225E7
:100DD0001AE02A4DA84201D1032515E0284DA8426A
:100DE00002D1042510E037E0264DA84201D10525A7
:100DF0000AE0254DA84201D1062505E0234DA84271
:100E000001D1072500E00825BD402543C6F8085854
:100E1000DBF800405D464E689C43F60300D51C435A
:100E20002C60DEF8004075464E689C43B60300D542
:100E30001C432C600B4D08352C684E689C43F60211
:100E400000D51C432C60074D0C352C684E689C4324
:100E5000B60200D51C432C60521C102AFFF44EAF82
:100E6000BDE8F88F003C01404438024000300140AA
:100E7000000002400004024000080240000C024052
:100E8000001002400014024000180240001C024002
:100E90000069084000D0012070470AB181617047A5
:100EA0000904FBE701488068704700003400002017
:100EB00070B5040004D094F83D00002510B106E0A0
:100EC000012070BD84F83C50204600F075F82420C5
:100ED00084F83D002068016821F00101016000F004
:100EE000D9FA33492268B0FBF1F15160314A6368A5
:100EF000934206D94FF4967359434FF47A73B1FB7A
:100F0000F3F12368491C1962616891420BD84900CA
:100F1000B0FBF1F2C2F30B02042A01D2042019E063
:100F2000B0FBF1F016E0A3689BB301EBC10202EB4A
:100F30000112B0FBF2F242F48042120530D04BB302
:100F400001EBC10202EB0111B0FBF1F040F4804073
:100F500040F400402168C861D4E9070108432168D2
:100F60000860D4E90310084321688860D4E90501CA
:100F700008432168C8602068016841F001010160F0
:100F80002564202084F83D00256384F83E5000202D
:100F900070BD00E006E001EB4102B0FBF2F2CCE7ED
:100FA0000120D7E701EB4101B0FBF1F0D0E70000F1
:100FB00040420F00A0860100F0B5164F01681222D2
:100FC0000123032504261448144C87B0B9420DD1DF
:100FD00029028DE86E006946FFF782FE206840F422
:100FE00000102060206800F4001010E00C4FB9429F
:100FF0000ED14FF440618DE86E006946FFF770FE38
:10100000206840F480002060206800F48000059093
:1010100007B0F0BD005400400004024040380240D8
:10102000005800400248816802781144816070478E
:10103000340000200B4810B5016841F400710160D4
:10104000016841F480610160016841F480710160D0
:10105000032000F0B1F8002000F006F800F03EF8A0
:10106000002010BD003C024010B5014688B00022AF
:101070001C2000F081F81C2000F072F814480024B5
:10108000016841F001010160006805A900F001005C
:101090000690684600F0D8F900F0FCF90D494000D0
:1010A000B0FBF1F10C484FF08042491E026040F263
:1010B000E732C0E90324C0E9011401F0DFF810B100
:1010C000012008B010BD044801F0F4F8F9E7000071
:1010D0004038024040420F00480500201F4808B534
:1010E000016841F480410160006800F48040009094
:1010F0001A48001F016841F080510160006800F04B
:1011000080500090032000F057F8002211466FF045
:101110000B0000F031F8002211466FF00A0000F0D9
:101120002BF8002211466FF0090000F025F800228C
:101130001146501F00F020F800221146101F00F049
:101140001BF800220F21901E00F016F800220F213C
:10115000BDE80840501E00F00FB8000044380240BF
:1011600000F01F02012191404009800000F1E020C1
:10117000C0F8001170470000F0B40E4B1B680C461D
:10118000C3F30223C3F10705042D00D90425191D5B
:10119000072901D2002300E0DB1E012606FA05F133
:1011A000491E214099409E40761E16403143F0BCB6
:1011B00001F0C2BD0CED00E0064900F0070208682E
:1011C0004FF6FF03184040EA0220034A104308602C
:1011D000704700000CED00E00000FA052DE9F8432F
:1011E000054600684FF00109C1074FF0000601D124
:1011F000400727D5DFF80C81C8F86860FFF752FE7A
:101200000746414C05E000BFFFF74CFEC01B02281B
:1012100057D820680001F7D468688101287A41EA2C
:101220000070394984310860C8F86890FFF73AFEC9
:10123000074604E0FFF736FEC01B022841D82068AD
:101240000001F7D52878800752D52F484030016833
:1012500041F08051016000682C4C00F080500090FB
:10126000206840F480702060FFF71CFE074604E011
:10127000FFF718FEC01B022823D82068C005F7D549
:10128000214C7034206810F4407020D0A98901F4FA
:10129000407181421BD020681D4920F44070C1F884
:1012A00000900E6020602068C00710D0FFF7FAFDA4
:1012B000064641F2883707E0FFF7F4FD801BB8428D
:1012C00002D90320BDE8F88320688007F4D5E968D7
:1012D0000D48C1F301220830032A0BD0016821F424
:1012E000F81101602068A989C1F30B01084320604F
:1012F0000020E7E70268074B22F4F81219400A437E
:101300000260EFE7000047420038024000700040F2
:10131000400E4742FFFCFF0F2DE9F0470E46050047
:1013200065D0DFF81481D8F80000F7B200F00F00A4
:10133000B04207D288F80070D8F8000000F00F0023
:10134000B04254D128683D4C810712D5400703D5DF
:10135000206840F4E05020602878000703D520681A
:1013600040F4604020602068A96820F0F000084345
:1013700020602878C0072DD03049686808390128D6
:1013800012D0022813D0032811D009688907002938
:101390002DDA216821F0030101432160FFF782FD6E
:1013A000814641F2883A0EE009688903EFE709684F
:1013B0008901ECE7FFF776FDA0EB0901514502D961
:1013C0000320BDE8F0872068696800F00C00B0EBEE
:1013D000810FEFD1D8F80010404601F00F01B14263
:1013E00007D90770006800F00F00B04201D001205B
:1013F000E7E72878400705D52068E96820F4E05041
:10140000084320602878000706D52068296920F461
:10141000604040EAC100206000F05CF82168084AA2
:10142000C1F30311515CC840064908600020FFF772
:101430001BFE0020C5E70000003C024008380240C7
:1014400038540008400000200F2202600C4A136844
:1014500003F003034360136803F0F0038360136831
:1014600003F4E053C36012684FF4E05303EAD2027E
:1014700002610448006800F00F0008607047000037
:1014800008380240003C02400148006870470000F4
:10149000400000200448054900680968044AC1F377
:1014A0008221515CC840704740000020083802404B
:1014B000485400080448054900680968044AC1F313
:1014C0004231515CC840704740000020083802405B
:1014D00048540008154810B5006810F00C02144874
:1014E00013D04110042A0FD0082A0ED10F4C241F0C
:1014F0002268236802F03F025B0207D52068C0F330
:101500008810A0FB010106E0084610BD2168C1F368
:101510008811A1FB00010023FEF7B0FE2168C1F392
:101520000141491C4900B0FBF1F010BD08380240F0
:101530000024F400F0B51F4C16460D461D4B00214B
:1015400002220327283C0028186887B019D040F0F1
:1015500004001860186800F0040005901002009064
:10156000CDE90121CDE9037169461348FFF7B8FBC6
:10157000206845EAC60120F078400843206007B0A3
:10158000F0BD40F001001860186800F001000590FF
:101590004FF480700090CDE90121CDE903716946D7
:1015A0000648FFF79DFB2068354320F0EC60284398
:1015B000E4E700003038024000080240000002402A
:1015C0002DE9F84F050076D02878DFF8F8B2BE4C48
:1015D000C00749D0DBF800105846C1F3810101294A
:1015E00008D00068C0F3810002280AD1201D0068DD
:1015F000400206D52068800336D568680028E2D00E
:1016000032E06868B0F5803F10D0B0F5A02F2068B8
:1016100010D020F480302060206820F480202060EA
:101620006868A0B1FFF73EFC06460CE0206840F475
:101630008030F4E740F480202060F7E7FFF732FCC9
:10164000801B642873D820688003F7D50CE0FFF76F
:1016500029FC064605E000BFFFF724FC801B642838
:10166000F0D820688003F7D42878DFF860828007FC
:101670004FF000093ED5DBF80010584611F00C0F72
:1016800009D00068C0F3810002280BD18D48001FEB
:101690000068400206D42068800715D5E868012854
:1016A00009D111E0E868B8B10120C8F80000FFF7DF
:1016B000F9FB064605E002E1FFF7F4FB801B022878
:1016C000C0D820688007F7D52068296920F0F80085
:1016D00040EAC10020600DE0C8F80090FFF7E2FB8F
:1016E000064604E0FFF7DEFB801B02281FD82068B7
:1016F0008007F7D42878000722D5724E74486969AC
:101700006C3671B101210160FFF7CCFB074604E0A4
:10171000FFF7C8FBC01B022809D830688007F7D53F
:101720000EE0C0F80090FFF7BDFB074605E083E040
:10173000FFF7B8FBC01B02287ED830688007F7D4BB
:101740002878400768D5DFF87CA100270AF1380A1D
:10175000DAF80000C0000BD4DAF8001041F0805134
:10176000CAF80010DAF80000012700F0805000905D
:10177000584E3068C00510D4306840F48070306036
:10178000FFF790FB009005E0FFF78CFB0099401AF3
:10179000022851D83068C005F6D54A4EA868683688
:1017A00001280FD00528306810D020F001003060EB
:1017B000306820F004003060A868B8B1FFF772FB11
:1017C00000900FE0306840F00100F4E740F00400C2
:1017D0003060F7E7FFF766FB0099411A41F2883065
:1017E000814264D830688007F4D50EE0FFF75AFBD9
:1017F000009007E0FFF756FB0099411A41F288304C
:10180000814254D830688007F4D42FB1DAF8001040
:1018100021F08051CAF80010A869C0B3DBF80010AD
:10182000C1F3810102294AD00228484607D0C8F8EE
:101830006000FFF737FB00E039E005463AE0474635
:10184000C8F86000FFF72EFB064604E0FFF72AFB0E
:10185000801B02282BD820688001F7D4D5E9070126
:101860000843A96A1C4A490802EB01416A6A41EA35
:101870008211084395F82C1040EA01611148001FBD
:10188000016001203866FFF70DFB054605E014E016
:10189000FFF708FB401B022809D820688001F7D514
:1018A0000BE000BFFFF7FEFA401B022802D903201D
:1018B000BDE8F88F20688001F4D40020F8E701200B
:1018C000F6E70000083802400038024000004742B6
:1018D000800E4742007000400000FFFF70B504001A
:1018E00002D0607F10B106E0012070BD002020779B
:1018F000204600F049F8022060772168CA2048623B
:10190000216853204862204601F03AFAFF25042658
:1019100018BB206881681B4A114081602168886873
:1019200062681043D4E904231A4310438860216895
:10193000E068086120680169228941EA0241016189
:101940002068C16821F08001C1602068806880063D
:1019500007D4204600F000F918B120684562667788
:10196000C2E72068016C21F4802101642068016CC9
:10197000A26911430164206845620120607700205C
:1019800070BD0000BFFF8FFF00680349884202D18D
:101990000249012008607047002800403C0E474281
:1019A0002DE9F0470446007F0B4601281FD04FF079
:1019B000010984F81C9002206077DAB19878D97810
:1019C00040EA014558781978000240EA4130054361
:1019D0002168CA204862216853204862204601F0ED
:1019E000CFF90026FF274FF0040860BB1AE0022061
:1019F000BDE8F0875878C10603D500F0EF000A3043
:101A00005870D87801F0B1F90204587801F0ADF9B6
:101A100042EA0022987801F0A8F90243187842EAD5
:101A20004035D5E70F480540206845602068C1680B
:101A300021F08001C1602068806880060AD42046B9
:101A400000F08AF830B12068476284F81D8026775C
:101A50000120CDE72068476284F81D90267700209A
:101A6000C6E700003FFFFF002DE9F0470446007F76
:101A70000D46012811D04FF0010A84F81CA0022065
:101A800060772068002680684FEA406042B10028F5
:101A90001ADA287801F060F917E00220BDE8F08733
:101AA000002800DBEE70287801F05FF90204687806
:101AB00001F05BF942EA0022A87801F056F90243EE
:101AC000E87842EA00470AE0EE70A878297840EA10
:101AD00001476878E978000240EA0140074321683D
:101AE000CA204862216853204862204601F048F924
:101AF0004FF0FF084FF00409E0B91648074020688E
:101B000007602068816821F480218160D5E90301A4
:101B1000084321688A68104388602068C16821F002
:101B20008001C1602068806880060BD4204600F0E8
:101B300013F838B12168C1F8248084F81D90267705
:101B40000120ABE72168C1F8248084F81DA0267726
:101B50000020A3E77F7F7F0070B504460068C1685E
:101B600021F0A001C160FFF79DF905464FF47A7698
:101B700007E000BFFFF796F9401BB04201D90320F0
:101B800070BD2068C0688006F4D5002070BDFEB529
:101B9000044603200D4684F83400606C032820D0EE
:101BA000B5F5805F1DD0B5F5006F05D045B1A06BD0
:101BB00040F00060A06309E0204601F0DFFD02E094
:101BC000204601F0B4FDA16B0143A163A06B012687
:101BD00058B1216840F2FF50886384F834600120D6
:101BE000FEBDA06B40F08050E4E7211DD4E90570F4
:101BF0000EC90095CDE90170206801F0FAF884F86B
:101C000034600020FEBD7047F0B5426E120E93099D
:101C10000B70C2F383034B7002F003028A70426EB2
:101C2000120CCA70B0F86420120A0A7190F864208D
:101C30004A71826E4FF6FF73120E03EA0212CA80D7
:101C4000826ECB88C2F3074243EA1213CB8002F0C4
:101C50000F020A72B0F86820C2F30722D3094B7250
:101C6000C2F380138B72C2F34013CB72C2F3001322
:101C70000B7300264E73446C4FF4007701236CB154
:101C8000012C43D0026840F2FF519163816B41F017
:101C90008051816380F834300120F0BD9207120D2D
:101CA0000A6190F868200C6944EA82020A61C26EF7
:101CB0000C69120E44EA92140C61C2F3C2040C7552
:101CC00002F007024A75C26EC2F3074254098C75CE
:101CD000C2F38204CC759207520F0A76B0F86C20DA
:101CE000C2F307240A7E42EAD4120A760A69521C19
:101CF00042650D7EAD1CAA4042650D7A03FA05F5DA
:101D000085656D0A6A43C0E917271CE090F86820D2
:101D10009206920A0A61C26E0C69120E44EA02220D
:101D20000A61C26E0C69C2F3074214430C61B0F839
:101D30006C20C2F307240A69521C4FEA82224265D2
:101D4000C0E916720766C4F3801201F8192F4FEA32
:101D500084624FEA52624A7010F86C2F4C7844EA61
:101D6000D2144C7002F07F028A7042684FEA12620D
:101D70004FEAD214CC70C2F341140C71C2F3820446
:101D80004C714FEA82724FEA12728A7142688C7902
:101D9000C2F3074244EA92148C71C2F34014CC712E
:101DA0000E7202F001024A728288C2F307224FEAE1
:101DB000D2148C72C2F38014CC72C2F340140C7330
:101DC000C2F300144C73C2F381048C7302F003025B
:101DD000CA7300794FEA500008744B744FF000004A
:101DE000F0BD426C0A60826C4A60C26C8A60026D0F
:101DF000CA60426D0A61826D4A61C26D8A61006E7D
:101E0000C8610020704770B50446B0F85000002546
:101E10000104206801F067F918B1A16B0143A163C7
:101E200004E00021206800F0DEFF0546C5F34320F2
:101E300070BD70B5040004D094F83400002510B1D2
:101E400005E0012070BD2577204600F037F803201B
:101E500084F83400204600F007F8A56325630120CC
:101E600084F83400002070BDFEB5002504467620BD
:101E70000095CDE901502B462A462946206800F0FE
:101E8000B8FF0D4E46F8A05F206800F0C4FF0125A2
:101E900035600220FEF712FF204601F0F7FB20B963
:101EA000204601F080FB002805D084F83450A16B57
:101EB0000143A1630120FEBD00802542F0B500680A
:101EC000134987B0884221D112480024016841F4A7
:101ED000006101600068022500F4006005904FF485
:101EE000F850CDE9000502AA03260C2782E8D000AD
:101EF00069460948FEF7F4FE0420CDE9000502AA70
:101F0000694682E8D0000548FEF7EAFE07B0F0BD5A
:101F1000002C01404438024000080240000C0240FE
:101F20002DE9F043154687B01F460A00044607D046
:101F300094F83400012807D0022007B0BDE8F083F0
:101F4000A06B40F0006008E00020A063E36DE91999
:101F5000994204D9A06B40F00070A06351E00321C6
:101F600084F8341021688146C8622168CB6B43F441
:101F70009573CB63E36B24494FEA4728D963E36B3E
:101F80002249D964E16B4FEA980308652168E06B48
:101F90008031FEF757FE1E4801260660606C01285E
:101FA00000D06D024FF0FF30CDE900089020029084
:101FB00002200596CDE903096946206800F0FDFE80
:101FC0004FF40071206800F071FF40F2FF5880B9B3
:101FD000012F06D9822020632946206800F0F4FFF3
:101FE00005E0812020632946206801F006F80028DA
:101FF000A3D02268C2F83880A16B0143A16384F8A2
:102000003460012099E7000087340008313400086B
:102010008C85254210B5FEF789FA10BD2DE9F04FE9
:1020200087B01F4615465FEA010B044607D094F8B7
:102030003400012807D0022007B0BDE8F08FA06B64
:1020400040F0006008E00020A063E26DE9199142D1
:1020500004D9A06B40F00070A06339E0032184F83C
:10206000341021688046C8622168CA6B42F01A02A7
:10207000CA63226C2349D163226C2349D164216C49
:102080000865606C012800D06D024FF40071206873
:1020900000F00CFF012640F2FF5988B94FF0900A7A
:1020A000012F06D9A02020632946206801F066F898
:1020B00005E0C4F830A02946206801F078F848B15E
:1020C0002268C2F83890A16B0143A16384F83460A0
:1020D0000120B1E70D48066022687D02AB08594631
:1020E0008032206CFEF7AEFD4FF0FF308DE821040A
:1020F000CDE90486CDF80C806946206800F05DFECD
:10210000002099E7C5340008313400088C85254249
:1021100070B5040005D00025A56294F8510010B1F7
:1021200006E0012070BD84F85050204600F030F8E1
:10213000022084F851002068016821F0400101600C
:10214000D4E901010843D4E903121143084361694A
:102150000843218B01F400710843E1690843216AB7
:102160000843A16A084321680860A069042101EAC4
:102170001040616A0843216848602068C16921F401
:102180000061C1616565012084F85100002070BDC7
:102190002DE9F04100682249002402250326052785
:1021A000DFF8808086B0884214D11F48016841F46E
:1021B00080510160006802AA00F480500590A020C0
:1021C000CDE9000582E8D00069461848FEF788FD91
:1021D000102018E0164988421ED11348001F0168DC
:1021E00041F480410160006802AA00F4804005903B
:1021F0000C20CDE9000582E8D00069460D48FEF7C5
:102200006FFD4FF44050CDE9000502AA694682E80F
:10221000D0004046FEF764FD06B0BDE8F081000046
:1022200000300140000402404438024000000240F7
:1022300000380040000802404FF0E02104280869FF
:1022400003D020F004000861704740F00400FAE772
:1022500010B5401EB0F1807F01D3012010BD4FF0BA
:10226000E02460610F21601700F066FD0020A0618E
:1022700007202061002010BD7047704710B5040092
:1022800003D094F8390010B107E0012010BD002000
:1022900084F83800204600F00CF8022084F8390059
:1022A000211D206801F0CEFB012084F839000020B8
:1022B00010BD70470168CA6842F00102CA60006838
:1022C000016841F00101016000207047704770B55E
:1022D0000446006801694FF00005C943890715D419
:1022E000C168C943890711D4E91E01610120207624
:1022F000206880698007204602D0FFF7E7FF04E0EE
:1023000000F098F8204600F096F8257620680169DC
:10231000C943490717D4C168C943490713D46FF0AB
:1023200004010161022020762068806910F4407F5A
:10233000204602D0FFF7CAFF04E000F07BF82046F9
:1023400000F079F8257620680169C943090716D499
:10235000C168C943090712D46FF008010161042064
:1023600020762068C0698007204602D0FFF7AEFFC4
:1023700004E000F05FF8204600F05DF82576206864
:102380000169C943C90617D4C168C943C90613D432
:102390006FF010010161082020762068C06910F4F8
:1023A000407F204602D0FFF791FF04E000F042F8A2
:1023B000204600F040F8257620680169C943C90726
:1023C00008D1C168C943C90704D1891E01612046EB
:1023D00000F032F820680169C943090609D4C168D0
:1023E000C943090605D46FF0800101612046FFF75B
:1023F00043FF20680169C943490609D4C168C9433C
:10240000490605D46FF040010161204600F01BF839
:1024100020680169C94389060BD4C168C94389068C
:1024200007D46FF0200101612046BDE87040FFF73E
:1024300024BF70BD704770470068B0F1804F01D174
:10244000FEF7F0BD704770477047000070B5026836
:1024500004461068D168536910F00F0F50D003F094
:10246000010501F4907635435DD0C20705D0CA0559
:1024700003D5E26B42F00102E263420705D5DA07B9
:1024800003D0E26B42F00202E263820705D5DA076D
:1024900003D0E26B42F00402E263020705D5DA07DB
:1024A00003D0E26B42F00802E263E26B002A33D011
:1024B000800604D5880602D5204601F03FFB20683F
:1024C0004069E16BC0F38010090700D428B32046AF
:1024D00001F026FB2068416949061AD5416921F0BF
:1024E00040014161606BA0B11B490165606BFEF763
:1024F0005DFA002810D0606B016DBDE870400847A0
:10250000830610D58B060ED52046BDE8704001F03D
:1025100015BB2046FFF798FF70BD2046FFF794FFDC
:102520000020E06370BD030606D50B0604D52046E7
:10253000BDE8704001F09EBC4006F3D54806F1D5D9
:10254000D168204621F04001D160202184F8391063
:1025500000F021F970BD0000113B000870B50400C7
:1025600004D094F83900002510B106E0012070BDB8
:1025700084F83850204600F023F8242084F83900ED
:102580002068C16821F40051C160204601F01CFBA5
:102590002068016921F4904101612068416921F0BE
:1025A0002A0141612068C16841F40051C160E563BE
:1025B000202084F8390084F83A00002070BD000023
:1025C0002DE9F04767490546DFF894C10768002404
:1025D000032002220123DFF890A14E0586B04FF4BC
:1025E000806967452DD10F6847F400270F6009689F
:1025F0008DE80D00039001F400210820CDE90401CD
:1026000069465046FEF76CFB594F58483860C7E999
:102610000164C7E903497C61BC61FC613C623846E6
:102620007C62FEF7A5FA18B1B52152A001F07DFC3D
:102630006F63002205213420BD63FEF79DFD342029
:102640001FE0DFF840814FF0070C47451ED1454998
:10265000091D0C6844F010040C60096801F01001B9
:1026600005914FF4C0618DE80E00CDE9030C694679
:102670005046FEF735FB002205212520FEF77CFDA4
:102680002520FEF76DFD06B0BDE8F087DFF8F88085
:1026900047452FD10F6847F400370F60096801F4F0
:1026A000003105910C218DE80E00CDE9030C69463F
:1026B0005046FEF715FB2E4F2C48603748303860E7
:1026C000C7E90164C7E903497C61BC61FC613C6204
:1026D00038467C62FEF74CFA18B1FC2125A001F0C7
:1026E00024FC6F63002205212620BD63FEF744FD14
:1026F0002620C6E7DFF894804745C4D10F6847F429
:1027000080270F60096801F4802105914FF4407122
:102710008DE80E00CDE9030C69461D48FEF7E0FA8E
:10272000134F1248C03718383860C7E90164C7E949
:1027300003497C61BC61FC613C6238467C62FEF707
:1027400017FA20B140F229110AA001F0EEFB6F63E5
:10275000002205212720BD63FEF70EFD272090E70C
:10276000004C0040403802400000024040600240FF
:10277000280400202E2E2F5372632F7573617274FC
:102780002E6300000010014000440040004800405B
:10279000000C024070477047FEE700007FB5154807
:1027A0001349002401604FF48031C0E90114046131
:1027B000846111490462C0E90A140125C460C5613D
:1027C00045610463FDF7FAFF18B152210BA001F037
:1027D000ACFB0A20CDE90005694602940548FDF7E7
:1027E00047FF002803D05C2104A001F09EFB7FBDC1
:1027F00000200140A40000200100000F2E2E2F53C6
:1028000072632F6164632E6300000000084910B5F5
:10281000064808600846FEF71DF8002805D0BDE808
:102820001040422103A001F080BB10BD00300240E7
:10283000000000202E2E2F5372632F6372632E63CD
:10284000000000000C4810B50A49016000214160F9
:102850008160C1600161416181610162FEF722F81E
:10286000002805D0BDE810404B2104A001F05DBB5D
:1028700010BD000000000550EC0000202E2E2F534C
:1028800072632F64636D692E63000000114808B500
:10289000016841F4001101600068002200F400109A
:1028A000009005210C20FEF767FC0C20FEF758FC79
:1028B000002205210D20FEF75FFC0D20FEF750FCE5
:1028C000002205211020FEF757FCBDE8084010202B
:1028D000FEF746BC3038024010B506490648FDF701
:1028E000A4FE044CA41EA11D20700448FDF79DFE0B
:1028F000607010BD12000020005400081C00002071
:1029000000B585B0142206496846FDF7E8FC0021B1
:10291000684601F0F7FB0349086005B000BD000000
:102920001C5400083000002070B52D4886B00024EB
:10293000016841F010010160016801F0100105918A
:10294000016841F004010160016801F00401059192
:10295000016841F080010160016801F0800105918A
:10296000016841F001010160016801F00101059178
:10297000016841F002010160016801F00201059166
:10298000016841F0080101600068164E00F008007F
:102990004FF476450590002229463046FEF77DFA31
:1029A0004FF40050CDE9000469460F480294FEF749
:1029B00097F90120CDE900500225CDE9025469467E
:1029C0003046FEF78DF9E8010090CDE901540394FB
:1029D000694606480494FEF783F906B070BD00000E
:1029E000303802400010024000080240000002405F
:1029F0000E4810B50C4901600D49416000214FF4AB
:102A000080428160C0E9031241618161C16101625C
:102A1000FEF74EFA002805D0BDE810404D2105A074
:102A200001F083BA10BD0000005400402C010020CA
:102A3000801A06002E2E2F5372632F6932632E6385
:102A4000000000000E4810B50C4901600D494160BE
:102A500000214FF480428160C0E90312416181612D
:102A6000C1610162FEF724FA002805D0BDE81040DC
:102A7000602105A001F059BA10BD000000580040C7
:102A800080010020801A06002E2E2F5372632F69BA
:102A900032632E63000000007047000010B520482C
:102AA00086B01E490024C0E900147F218160FF2107
:102AB000C0E9031444618461FEF710FF18B14C2192
:102AC00018A001F032FA8DF800408DF801408DF821
:102AD000024003940022694611480494FEF7C4FFA3
:102AE00018B158210FA001F020FA01208DF8140030
:102AF00006208DF8150011208DF816008DF817406E
:102B0000002205A90648FEF74BFF002803D06221EA
:102B100004A001F00AFA06B010BD00000028004031
:102B2000D40100202E2E2F5372632F7274632E63F4
:102B300000000000064805490160002141608160F5
:102B4000C16001614161816170470000002C01405A
:102B5000F4010020104810B50E4901604FF4827155
:102B6000416000218160C1604FF400720161C0E9E1
:102B70000512C1610162416281620A21C162FFF7EF
:102B8000C7FA002805D0BDE81040502103A001F08D
:102B9000CCB910BD00300140780200202E2E2F53FA
:102BA00072632F7370692E6300000000104810B527
:102BB0000E4901604FF48271416000218160C16063
:102BC0004FF400720161C0E90512C1610162416206
:102BD00081620A21C162FFF79BFA002805D0BDE897
:102BE0001040662103A001F0A0B910BD00380040DC
:102BF000D00200202E2E2F5372632F7370692E6324
:102C0000000000000D4810B50B4901604FF4E131A0
:102C10004160002181600C22C160C0E90412816121
:102C2000C161FFF79BFC002805D0BDE81040522190
:102C300003A001F07AB910BD004C00402803002029
:102C40002E2E2F5372632F75736172742E630000E2
:102C50000D4810B50B4901604FF4E131416000218E
:102C600081600C22C160C0E904128161C161FFF77B
:102C700075FC002805D0BDE81040652103A001F0D7
:102C800054B910BD00100140680300202E2E2F53B0
:102C900072632F75736172742E6300000D4810B556
:102CA0000B4901604FF4E1314160002181600C2249
:102CB000C160C0E904128161C161FFF74FFC0028C7
:102CC00005D0BDE81040782103A001F02EB910BD59
:102CD00000440040A80300202E2E2F5372632F754E
:102CE000736172742E6300000D4810B50B490160CA
:102CF0004FF4E1314160002181600C22C160C0E9E4
:102D000004128161C161FFF729FC002805D0BDE8EC
:102D100010408B2103A001F008B910BD004800400D
:102D2000E80300202E2E2F5372632F757361727487
:102D30002E630000FEE770470907090E002806DA37
:102D400000F00F0000F1E02080F8141D704700F142
:102D5000E02080F800147047010901EB810100F0C8
:102D60000F0000EB4100C0B27047002102E00A38BA
:102D7000C0B2491C0A28FAD2090740EA116070471C
:102D800070B504460068C168490614D44FF0FF319D
:102D9000C160FEF787F805464FF47A7607E000BF7A
:102DA000FEF780F8401BB04201D9032070BD2068B7
:102DB000C0684006F4D5002070BD0A6842624A68C7
:102DC0008262D1E902231A43D1E904310B43C16A7B
:102DD0001A4321F0F7011143C162002070470068D7
:102DE00000F00300704708B50844143000900068F4
:102DF00008BD70B50DF1100C11439CE87000234321
:102E0000194329434268314347F6FF639A430A4313
:102E10004260002070BD0321016000207047D0F89F
:102E2000800070470A688260D1E901231A43D1E922
:102E300003310B43C1681A436FF30B011143C160A7
:102E40000020704710B586B004463720CDE9001049
:102E500040200290002003904FF480600490694667
:102E60002046FFF7DFFF41F288323721204600F08D
:102E7000B7F906B010BD000010B504460A4886B088
:102E800001432920CDE9001040200290002003904A
:102E90004FF48060049069462046FFF7C3FF204648
:102EA00000F054FA06B010BD0000108010B586B0D6
:102EB00004461020CDE9001040200290002003902D
:102EC0004FF48060049069462046FFF7ABFF41F263
:102ED00088321021204600F083F906B010BD10B5ED
:102EE00086B004460620CDE9001040200290002064
:102EF00003904FF48060049069462046FFF792FFEC
:102F000041F288320621204600F06AF906B010BD71
:102F100030B585B000240546009401944FF48060DC
:102F20000294CDE9034069462846FFF77BFF0B4832
:102F30004FF4FA510068B0FBF1F041F28831484398
:102F4000401E03D24FF0004005B030BD696B09064A
:102F5000F6D540F2FF50A8632046F5E74000002078
:102F600070B585B004464FF4D57000900820402617
:102F7000CDE901060025C001CDE903506946204690
:102F8000FFF750FF0F484FF4FA510068B0FBF1F023
:102F900041F288314843401E02D24FF000450DE017
:102FA000616B11F0450FF6D0606B400702D5A66348
:102FB000042503E0606B400600D5A66305B02846F3
:102FC00070BD00004000002010B586B004461220FD
:102FD000CDE9001040200290002003904FF4806063
:102FE000049069462046FFF71DFF41F28832122106
:102FF000204600F0F5F806B010BD10B586B00446C6
:103000001120CDE9001040200290002003904FF4E1
:103010008060049069462046FFF704FF41F2883241
:103020001121204600F0DCF806B010BD10B586B0C6
:1030300004460720CDE900204020029000200390A4
:103040004FF48060049069462046FFF7EBFE41F2A2
:1030500088320721204600F0C3F806B010BD10B535
:1030600086B0044600210220CDE90010C020CDE941
:1030700002014FF48060049069462046FFF7D2FEBB
:10308000204600F03BF906B010BD10B586B00446EE
:103090000920CDE90010C0200290002003904FF4D9
:1030A0008060049069462046FFF7BCFE204600F091
:1030B00025F906B010BD10B586B0044600213320B6
:1030C000CDE900104020CDE90201000104906946DD
:1030D0002046FFF7A7FE41F288323321204600F058
:1030E0007FF806B010BD10B586B004460D20CDE9BE
:1030F000001040200290002003904FF48060049064
:1031000069462046FFF78EFE41F288320D212046A7
:1031100000F066F806B010BD30B585B00C46054627
:1031200000210320CDE900104020CDE9020100017B
:10313000049069462846FFF775FE2246032128467B
:1031400000F024F905B030BD10B586B0044600216A
:103150000C20CDE900104020CDE9020100010490CF
:1031600069462046FFF75EFE034A0C21204600F028
:1031700037F806B010BD000000E1F50510B586B0C7
:1031800004461920CDE90010402002900020039051
:103190004FF48060049069462046FFF743FE41F2F9
:1031A00088321921204600F01BF806B010BD10B57A
:1031B00086B004461820CDE900104020029000207F
:1031C00003904FF48060049069462046FFF72AFE82
:1031D00041F288321821204600F002F806B010BDF6
:1031E000444B10B51B684FF4FA54B3FBF4F353434C
:1031F0005B1E02D24FF0004010BD426B12F0450F33
:10320000F6D0426B520703D504218163084610BDF6
:10321000426BD20702D00121816303E00269D2B27E
:103220008A4201D0012010BD40F2FF51816300218C
:10323000FFF7D9FD3049084201D1002010BD002818
:1032400002DA4FF0007010BD410001D5402010BDE2
:10325000810001D5802010BDC10002D54FF48070DF
:1032600010BD010102D54FF4007010BD410102D51F
:103270004FF4806010BDC10102D54FF4006010BD55
:10328000010202D54FF4805010BD410202D54FF427
:10329000005010BD810202D54FF4804010BDC10224
:1032A00002D54FF4004010BD410302D54FF4003069
:1032B00010BD810302D54FF4802010BDC10302D59B
:1032C0004FF4002010BD010402D54FF4801010BD52
:1032D000410402D54FF4001010BD810402D54FF413
:1032E000800010BD000702D54FF4000010BD4FF460
:1032F000803010BD4000002008E0FFFD12494FF46F
:10330000FA520968B1FBF2F141F288325143491E89
:1033100002D24FF000407047426B12F0450FF6D0DA
:10332000416B490703D50421816308467047416B0F
:10333000C90703D0012181630846704740F2FF515D
:103340008163002070470000400000200E494FF4C8
:10335000FA520968B1FBF2F141F288325143491E39
:1033600002D24FF000407047426B12F0450FF6D08A
:10337000416B490703D5042181630846704740F239
:10338000FF51816300207047400000201F4B10B5A3
:103390001B684FF4FA54B3FBF4F341F288346343EF
:1033A0005B1E02D24FF0004010BD446B14F0450F7D
:1033B000F6D0436B5B0703D504218163084610BD3B
:1033C000436BDB0702D00121816303E00369DBB2B9
:1033D0008B4201D0012010BD40F2FF5181630021DA
:1033E000FFF701FD10F4604F04D0410406D54FF4FF
:1033F000005010BD000C1080002010BD000402D54C
:103400004FF4805010BD4FF4803010BD40000020BC
:1034100010B5064C01202070FDF748F818B9207847
:1034200020F001002070207810BD0000080000206E
:1034300010B5846BE06B406D012803D0206C406DAB
:1034400001281CD1216840F2FF5088632068C16BBD
:1034500021F49D71C163A06B40F08040A0632046C1
:10346000FEF7D1FC062801D0052805D12068FFF71A
:103470006BFEA16B0843A063012084F83400204652
:10348000FEF7C1FB10BD10B5846B206B822809D1FB
:103490002068FFF759FE28B1A16B0143A1632046C4
:1034A000FEF7B1FB2068C16A21F00801C162216802
:1034B00040F2FF508863012084F834002046FEF774
:1034C000A9FD10BD806B0068C16B41F48071C163C0
:1034D00070472DE9F04F89B00E460446FDF7E2FC37
:1034E00000258346009501952F4608212068FFF7A7
:1034F000DDFC002834D1B4F8500001042068FFF747
:10350000A1FC00282CD1401E4FF00808CDE902088C
:1035100030204FF00209CDE904090120CDE9067001
:1035200002A92068FFF749FC2068FFF7C4FD0028C6
:1035300016D1EA4640F22A472068416B394212D13F
:10354000416B890204D5FFF76AFC4AF825006D1C1F
:10355000FDF7A8FCA0EB0B00401CEDD14FF00040A4
:1035600009B0BDE8F08F416B090703D5C0F838807A
:103570000820F5E7416B890703D5C0F83890022091
:10358000EEE7416B890603D5202181630846E7E712
:1035900040F2FF518163009800BA7060019800BA50
:1035A00030600020DCE710B590B004460120ADF893
:1035B00038002068FFF713FC002864D0606C0328F3
:1035C00042D02068FFF74BFD00285AD10021206827
:1035D000FFF709FC606704212068FFF704FCA0677F
:1035E00008212068FFF7FFFBE0670C212068FFF748
:1035F000FAFBC4F88000606C032825D00EA920686F
:10360000FFF78AFD00283CD1606C03281CD0BDF870
:103610003800206501042068FFF737FD002830D10D
:1036200000212068FFF7DFFB606604212068FFF7B8
:10363000DAFBA06608212068FFF7D5FBE0660C21C5
:103640002068FFF7D0FB206704212068FFF7CBFB41
:10365000000DE06403A92046FEF7D6FAB4F8500046
:10366000002302042068FFF7E1FC002809D104F1DF
:10367000100007C88DE8070094E80F00FFF7B9FBBA
:10368000002010B010BD4FF08060FAE72DE9F8433C
:103690000025044600950068FFF73AFC00281AD17F
:1036A0002068FFF75DFC4FF080784FF6FF76D8B1C9
:1036B0004FF08057A5640098411C0091B0421AD089
:1036C00000212068FFF7BEFB20B900212068FFF72A
:1036D000D3FB10B13846BDE8F88300212068FFF71E
:1036E00082FBC00FE7D01FE00127A7640098411CB0
:1036F0000091B04201D14046EDE700212068FFF77C
:10370000A1FB0028E7D14FF080412068FFF7B4FB10
:103710000028E0D100212068FFF765FBC10FE5D04C
:10372000400001D5676400E065640020D3E71CB564
:10373000044600200090019000212068FFF753FB11
:10374000800102D54FF400601CBD69462046FFF79A
:10375000C0FE0028F8D10198C0030CD5B4F8500081
:1037600001042068FFF76EFB0028EDD100212068DE
:10377000FFF7B5FB1CBD4FF080601CBD1CB50446B7
:1037800000200090019000212068FFF72CFB8001B1
:1037900002D54FF400601CBD69462046FFF799FE34
:1037A0000028F8D1019840030CD5B4F8500001046A
:1037B0002068FFF747FB0028EDD102212068FFF7C2
:1037C0008EFB1CBD4FF080601CBD00007CB50E4C14
:1037D00005460120207000F0F2FB98B1FCF772FE64
:1037E00018B92846FFF714FE20702078012809D068
:1037F0000649D1E90001CDE900010021684600F049
:10380000F8FB606020787CBD08000020145400089C
:1038100010B5124888B014460078C00702D00320C3
:1038200008B010BDC1B1012905D0022908D0032973
:103830000CD00420F4E76846FCF732FE06980AE054
:103840006846FCF72DFE0798208005E06846FCF7E7
:1038500027FE0798400A20600020E1E708000020CA
:103860003EB51546084601241A462946FCF750FE87
:10387000C8B90F4847F230552A464168684600F0FB
:10388000BDFBDDE9001010290DD101280BD100F09E
:10389000A4FB054403E000BFFCF708FE28B100F0DC
:1038A0009CFBA842F8D320463EBD0024FBE7000065
:1038B00008000020FFF7ACBD3EB5154608460124C0
:1038C0001A462946FCF73CFEC8B90F4847F2305566
:1038D0002A464168684600F091FBDDE90010102996
:1038E0000DD102280BD100F078FB054403E000BFA6
:1038F000FCF7DCFD28B100F070FBA842F8D32046AD
:103900003EBD0024FBE7000008000020FEF7E4FFB6
:10391000FFF7C2F8012000F04BFBFBE700F0E8BB2B
:1039200070B52E4896B00025016841F080510160C5
:10393000006800F0805015902948016841F48041EA
:1039400001600068022400F480401590052000907A
:103950004FF480300190012086050290CDE90646A3
:1039600008AA08204FF4A07182E813000B90684663
:10397000FDF726FE00B1FEE70CA90F2081E831001B
:103980004FF4A0500F904FF48050109005210CA8D8
:10399000FDF7C2FC00B1FEE74FF480701490119463
:1039A00011A8FDF71BFC00B1FEE74FF08062314625
:1039B0000020FDF7BFFDFDF767FD4FF47A71B0FB06
:1039C000F1F0FEF745FC0420FEF736FC00220F2143
:1039D000501EFDF7D1FB16B070BD0000403802400C
:1039E000007000401048016841F4700101600F4808
:1039F000016841F0010101600C4A002108321160A8
:103A000002680B4B1A400260031D0A4A1A600268E2
:103A100022F48022026005480C30016002495806F9
:103A2000803908607047000088ED00E000380240EF
:103A3000FFFFF6FE103000240148FEF748BC0000EE
:103A400048050020F0B50268234B244D244E254F35
:103A5000254C4FF0804C984209D0604507D0A842D1
:103A600005D0B04203D0B84201D0A04204D122F028
:103A7000700E4A6842EA0E0298421BD0604519D087
:103A8000A84217D0B04215D0B84213D0A04211D0EE
:103A9000164DA8420ED0164DA8420BD0154DA84287
:103AA00008D0154DA84205D0144DA84202D0144D9F
:103AB000A84203D122F44075CA682A4302608A688A
:103AC000C2620A688262984201D0A04201D10969AB
:103AD000016301214161F0BD00000140000400408C
:103AE00000080040000C004000040140004001407C
:103AF000004401400048014000180040001C004004
:103B0000002000400148FEF7A1BC0000280300206F
:103B100010B5806B0021C185C184FEF795FC10BDF6
:103B20000168CA6822F49072CA6001684A6922F08A
:103B300001024A61202180F83A10704710B590F8D0
:103B40003A10222901D0022010BD8168B1F5805FB2
:103B500011D00169002901681FD0496801F07F0375
:103B6000816A4A1C82620B70C18D491E0904090CCE
:103B7000C18518D026E00269816A002A026852686D
:103B800005D0D2B20A80816A491C8162ECE7C2F397
:103B900008020A80816A891CF7E74A68816A4B1C1F
:103BA00083620A70E0E70168CA6822F49072CA6012
:103BB00001684A6922F001024A61202180F83A1026
:103BC000FEF7E8FD002010BD2DE9F0410446006835
:103BD000016921F44052E168114301612168C8681C
:103BE00049F20C6290432369A268E5691A4363694C
:103BF0002B431A430243CA602168486920F440728B
:103C0000A06910434861E1696425B1F5004F974808
:103C1000974A21684FF032083FD0914201D081424B
:103C20007CD1FDF747FC00EBC00101EB001061689F
:103C30008900B0FBF1F6FDF73DFC00EBC00101EBA4
:103C4000001061688900B0FBF1F0B0FBF5F06FF097
:103C50001801484306EB800108EB0110B0FBF5F0BA
:103C600000F0F006FDF726FC00EBC00101EB0010B0
:103C700061688900B0FBF1F0B0FBF5F006EB0016CF
:103C8000FDF718FC00EBC00101EB00106168890032
:103C9000B0FBF1F7FDF70EFCD2E0914201D081427A
:103CA0003DD1FDF707FC00EBC00101EB001061689E
:103CB0004900B0FBF1F0B0FBF5F00601FDF7FAFBAF
:103CC00000EBC00101EB001061684900B0FBF1F7A7
:103CD000FDF7F0FB00EBC00101EB0010616849004B
:103CE000B0FBF1F0B0FBF5F06FF01801484307EBC3
:103CF000800108EBC100B0FBF5F000F0F80006EB26
:103D00004006FDF7D7FB00EBC00101EB0010616836
:103D10004900B0FBF1F7FDF7CDFB3CE055E0FDF7C6
:103D2000B9FB00EBC00101EB001061684900B0FB7A
:103D3000F1F0B0FBF5F00601FDF7ACFB00EBC001C4
:103D400001EB001061684900B0FBF1F7FDF7A2FB41
:103D500000EBC00101EB001061684900B0FBF1F01D
:103D6000B0FBF5F06FF01801484307EB800108EB5A
:103D7000C100B0FBF5F000F0F80006EB4006FDF7DF
:103D800089FB00EBC00101EB001061684900B0FB4A
:103D9000F1F7FDF77FFB00EBC00101EB001061685C
:103DA0004900B0FBF1F0B0FBF5F06FF018014843AB
:103DB00007EB800108EBC100B0FBF5F000F0070055
:103DC000216830448860BDE8F081FDF763FB00EBBB
:103DD000C00101EB001061688900B0FBF1F6FDF74E
:103DE00059FB00EBC00101EB001061688900B0FBDA
:103DF000F1F0B0FBF5F06FF01801484306EB8001DD
:103E000008EB0110B0FBF5F000F0F006FDF742FB07
:103E100000EBC00101EB001061688900B0FBF1F01C
:103E2000B0FBF5F006EB0016FDF734FB00EBC0012C
:103E300001EB001061688900B0FBF1F7FDF72AFB88
:103E400000EBC00101EB001061688900B0FBF1F0EC
:103E5000B0FBF5F06FF01801484307EB800108EB69
:103E60000110B0FBF5F000F00F00A9E700140140CD
:103E70000010014090F83910212901D0022070472C
:103E80008168B1F5805F016A0BD04A1C026202684A
:103E900009785160C18C491E0904090CC1840ED0F7
:103EA00017E009880268C1F308015160016900291F
:103EB000016A02D0491C0162ECE7891CFBE701683A
:103EC000CA6822F08002CA600068C16841F04001FF
:103ED000C1600020704700000148FEF7B7BA00003B
:103EE000680300200148FEF7B1BA0000A8030020D3
:103EF0000148FEF7ABBA0000E803002002480121A8
:103F000001700078704700001A00002001207047FF
:103F100000207047024801210170007870470000BE
:103F20001A00002000207047FEE7FEE702E008C804
:103F3000121F08C1002AFAD170477047002001E023
:103F400001C1121F002AFBD17047EFF30580002842
:103F500000D001207047FDF76DF8FFF7E1FCFEF798
:103F6000E3FCFEF793FCFEF719FCFEF74FFCFEF7AF
:103F700069FCFEF73DFDFEF765FDFEF78FFDFEF7E0
:103F8000D9FDFEF7E7FDFEF711FEFEF73BFEFEF75B
:103F90005FFEFEF783FEFEF7A7FEFEF7B1FC00F022
:103FA00017F8FEE701460020842900D0C81C70479E
:103FB00010B500B9012000F057FC002010BD10B56D
:103FC00001F0B6F8012801D0012010BD002010BD7D
:103FD00010B500F0E1FC002010BD10B5FFF7B5FFF3
:103FE00018B1BDE8104001F0B7B8BDE8104001F0CD
:103FF000ADB803C8002200F0BFBD00002DE9FF41AD
:104000000D004FF00006CDE9016507461ED00024E3
:104010000396501C1FD002B11446FFF796FF694665
:104020004FF01008E8B103AA2846091D00F0D0FFA0
:10403000012813D000960398F0B115494FF0805035
:104040000860BFF34F8FBFF36F8F15E080203146BC
:104050002A46009012E04FF0FF34DEE7CDF80080F2
:10406000E9E7002322462846091D00F0A9FD0128A2
:1040700008D054B1402000909DE8070087E8070071
:10408000BDE8FF81CDF80080F6E70020F3E70000EF
:1040900004ED00E037B5054682B000200090140022
:1040A00000D10124FFF751FF4FF0000388B16A46A9
:1040B00003A9284600F02EFF012811D1009890B1E5
:1040C0000A494FF080500860BFF34F8FBFF36F8FE6
:1040D00009E0224603A9284600F06CFE012802D020
:1040E000FF2005B030BD0020FBE7000004ED00E03C
:1040F00010B501F01DF8012803D0BDE8104000F014
:1041000025BD10BD3EB504460D46B0F90800FFF7C9
:1041100049FF02A9CDE90001208A2B4682B2D4E9E9
:10412000001000F0D9FF012801D000203EBD029808
:104130003EBD00002DE9F041184C0F460546E668EB
:104140002068001D00F0B0FA38B9206890F82C10F3
:1041500001208840216981432161681C07D137B162
:104160002168BDE8F0410E48091D00F0D5BA20686D
:104170003544B5424560216805D2A06BBDE8F041E9
:10418000091D00F0B1BA606B091D00F0ADFAA06A1C
:10419000854200D2A562BDE8F081000068000020E1
:1041A000704200202DE9F041054600F0C1FA2E4C86
:1041B000A068401CA06020682C4F10B1606940B31B
:1041C0002DE02560A068012829D1002606EB860095
:1041D00007EB800000F07AFA761C072EF6D323480E
:1041E0008C3000F073FA2148A03000F06FFA1F48BD
:1041F000B43000F06BFA1D48C83000F067FA1B4875
:10420000DC3000F063FA19488C3060631430A0632E
:1042100005E02068E96AC06A884200D82560606AC3
:10422000401C6062E96A01202269884010432061D5
:1042300001EB810007EB8000291D00F06DFA00F012
:1042400097FA606900280CD02068E96AC06A884241
:1042500007D207494FF080500860BFF34F8FBFF37C
:104260006F8FBDE8F08100006800002094410020BD
:1042700004ED00E070B5114E114C17E000F0C0FBEA
:104280003068B8B101F05AF800F052FAF068C56829
:10429000281D00F009FAA068401EA0606068401E5A
:1042A000606000F065FA284600F055F86068002864
:1042B000E4D170BD01F042F8F8E700005C42002054
:1042C0006800002030B4026C0B46002A0BD0C16895
:1042D0001144C1604468A14201D30168C16030BC8F
:1042E0001846FBF7FCBF30BC70472DE9F041856BE9
:1042F000174604460026026C82B1C7B1E068FBF79E
:10430000EEFFE168206C091AE1602268914202D256
:104310006168081AE060022F16D017E02068A8B97B
:10432000606800F085FF0646002060600EE0A0682F
:10433000FBF7D5FF216CA0680844A0606168884243
:1043400004D32068A06001E005B16D1E6D1CA5635B
:104350003046BDE8F08110B50446006B00F01CFA51
:104360002046BDE8104000F017BA000010484FF496
:104370007051420706D0C01D0D4920F00700411AB8
:10438000C1F570510B4A00230144C2E9000308390A
:10439000103A21F0070111604B600B600B1AC0E965
:1043A000001393604FF000405360D06070470000EE
:1043B0009405002054000020074C4FF08056074D14
:1043C000FFF758FF20680128FAD92E60BFF34F8FFE
:1043D000BFF36F8FF4E700009441002004ED00E08C
:1043E0002DE9F0479A46DDE9098481466FF0030321
:1043F000206B03EB82021044089D20F00706700733
:1044000007D0502080F31188BFF34F8FBFF36F8F19
:10441000FEE723180A5C83F834200A5C12B1401CC2
:104420001028F6D3002784F84370072D00D3062503
:10443000E562C4E91157201D00F053F904F118009A
:1044400000F04FF92461C5F107006462A061E764E0
:1044500084F8507052464946304600F00FF920600B
:10446000B8F1000F01D0C8F80040BDE8F0870000A7
:1044700030B5114900E011460A688242FBD34B680F
:104480005C18844203D14068184448600846436879
:104490001C18944209D1084C103C2468A24209D04F
:1044A00052681A4442600A6812680260814200D071
:1044B000086030BD0460F9E75400002010B50446E0
:1044C00000F036F9A06B28B15FF0000400F050F95D
:1044D000204610BD0124F9E70648416B096829B15F
:1044E000416BC968C9684968816270474FF0FF3104
:1044F000FAE700006800002008484068401C4FF0C0
:10450000500080F3118804D0BFF34F8FBFF36F8F3B
:10451000FEE7BFF34F8FBFF36F8FFEE75C00002015
:104520002DE9F041044600F003F994F9455004F1F7
:10453000240609E0606A48B1304600F0C5FE08B1C3
:1045400000F0B8F96D1E6DB2002DF3DC4FF0FF36B0
:1045500084F8456000F00CF900F0EAF894F9445052
:1045600004F1100709E0206948B1384600F0ACFEBC
:1045700008B100F09FF96D1E6DB2002DF3DC84F8D8
:104580004460BDE8F04100F0F3B800002DE9F041CF
:104590000546002700F034FA314E306808B9FFF7BD
:1045A000E5FEF06805424BD1C5B3083568070ED06B
:1045B00005F00700C0F108000544680707D0502047
:1045C00080F31188BFF34F8FBFF36F8FFEE72DB3DA
:1045D0007068854234D82248103001460C6801E0EA
:1045E00020460C466168A94202D221680029F7D111
:1045F00031688C4224D00768216801606068083700
:10460000411B10290FD96019420708D0502080F3B0
:104610001188BFF34F8FBFF36F8FFEE710E041604B
:104620006560FFF725FF61687068401A7060B268C6
:10463000904200D2B060F06801430020C4E900015C
:1046400000F07CFE780707D0502080F31188BFF37C
:104650004F8FBFF36F8FFEE73846BDE8F081000053
:10466000440000200449086818B10868826C521C94
:1046700082640868704700006800002010B5031FBE
:104680004FF080741C601B1F21F001011960191F7D
:10469000044B0B6014390A60091F6FF002024438A2
:1046A0000A6010BDF9440008D0E9013201699A603E
:1046B000D0E901235A604A68824201D182684A6087
:1046C000002202610868401E0860704700F108017E
:1046D0004FF0FF32C0E90112C160016100210160A9
:1046E000704700210161704730B50B685A1C02D039
:1046F00000F1080202E0026904E0224654682568DD
:104700009D42FAD953684B6099608A605160086194
:104710000168491C016030BD42684A6093688B6043
:1047200093685960916008610168491C0160704795
:10473000502080F31188BFF34F8FBFF36F8F0A496A
:104740004868401C486001280CD10848006810F0F7
:10475000FF0F07D0502080F31188BFF34F8FBFF3B6
:104760006F8FFEE7704700005C00002004ED00E062
:104770000849486828B1401E486001D180F311887B
:104780007047502080F31188BFF34F8FBFF36F8FB6
:10479000FEE700005C00002070B5002827D0144D13
:1047A000A0F108046168E868014207D1502080F355
:1047B0001188BFF34F8FBFF36F8FFEE722683AB1C6
:1047C000502080F31188BFF34F8FBFF36F8FFEE748
:1047D0008143616000F014F96068696808446860AA
:1047E0002046FFF745FEBDE8704000F0A7BD70BD54
:1047F0004400002006484FF47A710068B0FBF1F1E4
:104800004FF0E020491E416107210161704700001F
:104810004000002010B5FBF71BFD114910280ED3F6
:1048200000F1E02090F8F0030A78904207D250207F
:1048300080F31188BFF34F8FBFF36F8FFEE70948F6
:104840000068896800F4E060884207D9502080F34E
:104850001188BFF34F8FBFF36F8FFEE710BD0000CD
:104860005C0000200CED00E010B5020014D00F48F1
:10487000006B38B1502080F31188BFF34F8FBFF326
:104880006F8FFEE700F0BCF800211046FFF752FCE6
:1048900000F054FD002807D105494FF08050086012
:1048A000BFF34F8FBFF36F8F10BD00006800002073
:1048B00004ED00E001490120C86170476800002054
:1048C00010B50C4650B1094909681831FFF70CFFC3
:1048D0002046BDE810400121FFF72CBC502080F39A
:1048E0001188BFF34F8FBFF36F8FFEE76800002082
:1048F00070B5040039D01D4DE06A2968C96A884244
:1049000033D2A069002804DB2868C06AC0F1070020
:10491000A061E16A164E01EB8101606906EB81013D
:1049200088421FD1201DFFF7BFFE012150B9E06A68
:1049300000EB800256F8222022B92A6901FA00F021
:1049400082432A612868C06AE0622A698140114373
:10495000296100EB800006EB8000211DBDE870405E
:10496000FFF7DABE2868C06AE06270BD6800002008
:104970009441002028B107490A6A0260C968416071
:104980007047502080F31188BFF34F8FBFF36F8FB4
:10499000FEE70000680000201CB515480024CDE9A2
:1049A00000402346802213A1144800F095FB012803
:1049B00009D0401C1AD1502080F31188BFF34F8FCB
:1049C000BFF36F8FFEE7502080F31188BFF34F8F46
:1049D000BFF36F8F06484FF0FF312C388162012101
:1049E0004161C460BDE81C4000F040B81CBD00003F
:1049F0009400002049444C4500000000B9430008E1
:104A00000248016B491C01637047000068000020E8
:104A10001448016B11B10121C16170470021C161CE
:104A20000169B1FA81F1C1F11F0101EB81020E4967
:104A300051F822306BB101EB820101F108034A68A1
:104A400052684A609A4201D152684A60D168016056
:104A50007047502080F31188BFF34F8FBFF36F8FE3
:104A6000FEE7000068000020944100201CB5324899
:104A70000168324A914207D1502080F31188BFF378
:104A80004F8FBFF36F8FFEE700682C49491E8842A5
:104A900007D1502080F31188BFF34F8FBFF36F8F82
:104AA000FEE7274908780190FF20087008788DF804
:104AB00000009DF800009DF8002000F0F0009042FA
:104AC00007D0502080F31188BFF34F8FBFF36F8F53
:104AD000FEE79DF800001B4A00F050001070072010
:104AE000906005E09DF800305B008DF80030401EBE
:104AF0009DF800301B06F5D4000200F4E0609060E1
:104B0000019808700C482030016841F47001016080
:104B1000016841F070410160FFF76CFE00205060B9
:104B2000FBF75CFB0848016841F040410160FBF77E
:104B300045FB00201CBD000000ED00E071C20F41EC
:104B400000E400E05C00002034EF00E010B55020ED
:104B500080F31188BFF34F8FBFF36F8F00F004FB1A
:104B600018B104494FF080500860002080F311888C
:104B700010BD000004ED00E070B50E46050013D036
:104B8000D6B105FB06F04830FFF700FD040009D060
:104B900004F1480120468EB10160C0E90F560121A1
:104BA00000F0C4F8204670BD502080F31188BFF398
:104BB0004F8FBFF36F8FFEE70020E4E70060ECE764
:104BC0002DE9FF4F002683B09B468A46040003D0A0
:104BD000BAF1000F08D011E0502080F31188BFF324
:104BE0004F8FBFF36F8FFEE7206C38B1502080F3FA
:104BF0001188BFF34F8FBFF36F8FFEE700F098FA75
:104C0000DFF824814FF000094FF0805748B905982C
:104C100038B1502080F31188BFF34F8FBFF36F8FEF
:104C2000FEE7FFF785FDA56B45B351462046E668D4
:104C3000FFF748FBBBF1000F13D0E660606A50B18C
:104C400004F1240000F040FB28B1C8F80070BFF365
:104C50004F8FBFF36F8FFFF78BFD012007B0BDE8CB
:104C6000F08F6D1EA563206810B9FFF7FBFC606034
:104C700020690028EFD004F11000E3E7059808B19F
:104C80001EB106E0FFF774FD27E06846FFF772FEED
:104C90000126FFF76DFDFFF7B3FEFFF749FD94F91D
:104CA0004400401C01D184F8449094F94500401C14
:104CB00001D184F84590FFF75BFD05A9684600F037
:104CC000D5F9002820460AD0FFF72AFC00F036FB71
:104CD0002046FFF7F3FB0028A3D00020BEE7FFF734
:104CE000EDFBD8B1206830B9FFF722FD6068FFF70F
:104CF000FFFDFFF73DFD04F124000599FFF7E0FDFE
:104D00002046FFF70DFC00F019FB002889D1C8F8F8
:104D10000070BFF34F8FBFF36F8F82E72046FFF71E
:104D2000FFFB00F00BFB7CE704ED00E070B50D46E7
:104D3000040025D0FFF7FCFCD4E90F20216802FB1A
:104D4000001161600021A1632168A1600A46D4E9D5
:104D50000F01401E00FB0121E16021464FF0FF30B2
:104D600001F8440F487004F110008DB1FFF7AEFC5C
:104D700004F12400FFF7AAFCFFF7FAFC012070BD44
:104D8000502080F31188BFF34F8FBFF36F8FFEE782
:104D900021690029F0D000F097FA0028ECD00449EE
:104DA0004FF080500860BFF34F8FBFF36F8FE3E782
:104DB00004ED00E02DE9FF4782B01D468A464FF022
:104DC0000008040003D0BAF1000F08D011E0502011
:104DD00080F31188BFF34F8FBFF36F8FFEE7206C16
:104DE00038B1502080F31188BFF34F8FBFF36F8F1E
:104DF000FEE7022D0AD1E06B012807D0502080F396
:104E00001188BFF34F8FBFF36F8FFEE700F090F96B
:104E10003F4F4FF000094FF0805648B9049838B121
:104E2000502080F31188BFF34F8FBFF36F8FFEE7E1
:104E3000FFF77EFCA06BE16B884207D3022D05D003
:104E40000498D0B1B8F1000F1AD01EE02A4651469E
:104E50002046FFF74AFA616A19B104F1240000F014
:104E600033FA20B13E60BFF34F8FBFF36F8FFFF770
:104E70007FFC012006B0BDE8F087FFF779FC22E057
:104E80006846FFF777FD4FF00108FFF771FCFFF769
:104E9000B7FDFFF74DFC94F94400401C01D184F8A4
:104EA000449094F94500401C01D184F84590FFF7E7
:104EB0005FFC04A9684600F0D9F830B12046FFF73E
:104EC0002FFB00F03BFA0020D4E7FFF731FCA06B8A
:104ED000E16B884213D1FFF74BFC04F110000499F9
:104EE000FFF7EEFC2046FFF71BFB00F027FA002837
:104EF0009ED13E60BFF34F8FBFF36F8F98E7FFF7F0
:104F000037FC2046FFF70CFB00F018FA90E7000092
:104F100004ED00E02DE9F0471F4690468946040065
:104F200003D0B9F1000F08D011E0502080F31188B0
:104F3000BFF34F8FBFF36F8FFEE7206C38B1502067
:104F400080F31188BFF34F8FBFF36F8FFEE7022FFF
:104F50000AD1E06B012807D0502080F31188BFF3FD
:104F60004F8FBFF36F8FFEE7FFF754FC5020EFF336
:104F7000118680F31188BFF34F8FBFF36F8FA06B43
:104F8000E16B884206D3022F04D0002086F31188FB
:104F9000BDE8F08794F945503A4649462046FFF768
:104FA000A4F9681C04D06D1C84F845500120EDE77D
:104FB000606A0028FAD004F1240000F085F9002886
:104FC000F4D0B8F1000FF1D00121C8F80010EDE7DE
:104FD0002DE9F04790468946040003D0B9F1000F4F
:104FE00008D011E0502080F31188BFF34F8FBFF33A
:104FF0006F8FFEE7206C38B1502080F31188BFF32B
:105000004F8FBFF36F8FFEE7FFF704FC5020EFF3E5
:10501000118680F31188BFF34F8FBFF36F8FA76B9B
:10502000F7B194F9445049462046FFF74BF97F1EEB
:10503000A763681C04D06D1C84F84450012010E064
:1050400020690028FAD004F1100000F03DF9002892
:10505000F4D0B8F1000FF1D00121C8F80010EDE74D
:10506000002086F31188BDE8F087000070B50D467A
:10507000040019D005B3FFF75BFB164AD168286816
:10508000431C0FD02368126A934202D062688A429E
:105090001AD96268891A814216D2401A28602046BD
:1050A000FFF768FC002410E0502080F31188BFF364
:1050B0004F8FBFF36F8FFEE7502080F31188BFF34F
:1050C0004F8FBFF36F8FFEE70124FFF751FB2046A0
:1050D00070BD0000680000202DE9FF5F8346DDE918
:1050E0000E87994616468A469000FFF74FFA05004C
:1050F0001AD05420FFF74AFA040012D02563002189
:10510000CDE90241CDE900874B463246514658462B
:10511000FFF766F92046FFF745F8012004B0BDE827
:10512000F09F2846FFF738FB4FF0FF30F6E700000E
:105130000548416919B1006B18B100207047012082
:105140007047022070470000680000200148C068D6
:10515000704700006800002010B5FFF75BFB0148B6
:10516000C06810BD680000202DE9F0412E4C0027DA
:10517000206B40B1A069401CA061E06900B101272B
:105180003846BDE8F081E668761CE66013D1606BB6
:10519000006838B1502080F31188BFF34F8FBFF300
:1051A0006F8FFEE7606BA16B6163A063206A401C98
:1051B0002062FFF791F9A06ADFF87080864209D378
:1051C000606B006880B1606BC068C56868688642C3
:1051D0000DD2A0622068C06A00EB800158F821005F
:1051E0000128CAD90127C8E74FF0FF30F1E7281D91
:1051F000FFF75AFAA86A18B105F11800FFF754FA38
:10520000E86A0121226981401143216100EB80019C
:1052100008EB8100291DFFF77FFAE86A2168C96A57
:105220008842CDD30127CBE76800002094410020BD
:1052300070B504004FF0000140D0214D2868844231
:1052400007D0502080F31188BFF34F8FBFF36F8FCB
:10525000FEE7A06C38B1401EA064636CE26A9A421B
:105260002CD040B12AE0502080F31188BFF34F8F3B
:10527000BFF36F8FFEE7201DFFF716FA114A0121D9
:1052800050B9E06A00EB800352F8233023B92B6950
:1052900001FA00F083432B61606CE062C0F107000B
:1052A000A061E06A2B6981401943296100EB80000D
:1052B00002EB8000211DFFF72FFA0121084670BD87
:1052C00068000020944100202DE9F041C068C468C6
:1052D000ACB104F118000746FFF7E6F9154D286B4D
:1052E0000126A0B139461448FFF716FAE06A29688A
:1052F000C96A88421CD90120EE61BDE8F0815020C6
:1053000080F31188BFF34F8FBFF36F8FFEE7201D2F
:10531000FFF7CAF9E16A2A6906FA01F01043286129
:1053200001EB81000449B43901EB8000211DDBE76A
:105330000020E2E768000020484200202DE9F04705
:105340002C4D00242746286B38B1FFF7F1F9286B64
:10535000401E2863286B40B146E0502080F311883E
:10536000BFF34F8FBFF36F8FFEE7A968224E012076
:10537000D1B3A6F1B40980463068E8B1F068C468DA
:1053800004F11800FFF790F9201DFFF78DF9E06A8E
:105390002A6908FA00F11143296100EB800109EB49
:1053A0008100211DFFF7B8F9E06A2968C96A8842BF
:1053B000E2D3C5F81C80DFE70CB1FFF78DF8AC69CC
:1053C00044B14646FFF7D0FE00B1EE61641EF9D14C
:1053D0000020A861E86938B108490127380708604A
:1053E000BFF34F8FBFF36F8FFFF7C2F93846BDE8A9
:1053F000F0870000680000204842002004ED00E033
:10540000CD370008B538000861380008B938000801
:10541000113800080A000000020000005054000883
:105420000D390008000000000000000080000000AE
:105430000006101600061016000000000000000014
:10544000010203040607080900000000010203042A
:1054500064656661756C745461736B007C540008FC
:1054600000000020A40000002C3F00082055000888
:10547000A4000020E44500003C3F000800000000BC
:10548000000000000100000000000000000000001B
:105490000000000000000100FD3E0008153F00086C
:1054A000113F0008253F00080D3F000800000000E4
:1054B0000100000010000000000000000024F400C3
:1054C00000000000000000000000000000000000DC
:1054D000000000000000000000000000AAAAAAAA24
:1054E00000000000000000000000000000000000BC
:1054F00000000000000000000000000000000000AC
:10550000000000000000000000000000000000009B
:10551000000000000000000000000000000000008B
:040000050800018965
:00000001FF
